{
  "contractName": "LootBoxFullRandomOpener",
  "abi": [
    {
      "inputs": [
        {
          "internalType": "address",
          "name": "_lootBox",
          "type": "address"
        }
      ],
      "stateMutability": "nonpayable",
      "type": "constructor"
    },
    {
      "anonymous": false,
      "inputs": [
        {
          "indexed": false,
          "internalType": "address",
          "name": "caller",
          "type": "address"
        }
      ],
      "name": "OpenCommonLootBox",
      "type": "event"
    },
    {
      "anonymous": false,
      "inputs": [
        {
          "indexed": false,
          "internalType": "address",
          "name": "caller",
          "type": "address"
        }
      ],
      "name": "OpenLegendaryLootBox",
      "type": "event"
    },
    {
      "anonymous": false,
      "inputs": [
        {
          "indexed": false,
          "internalType": "address",
          "name": "caller",
          "type": "address"
        }
      ],
      "name": "OpenRareLootBox",
      "type": "event"
    },
    {
      "anonymous": false,
      "inputs": [
        {
          "indexed": true,
          "internalType": "address",
          "name": "previousOwner",
          "type": "address"
        },
        {
          "indexed": true,
          "internalType": "address",
          "name": "newOwner",
          "type": "address"
        }
      ],
      "name": "OwnershipTransferred",
      "type": "event"
    },
    {
      "anonymous": false,
      "inputs": [
        {
          "indexed": false,
          "internalType": "uint256",
          "name": "tier",
          "type": "uint256"
        },
        {
          "indexed": false,
          "internalType": "address",
          "name": "NFTGame",
          "type": "address"
        }
      ],
      "name": "SetGameNFT",
      "type": "event"
    },
    {
      "inputs": [],
      "name": "owner",
      "outputs": [
        {
          "internalType": "address",
          "name": "",
          "type": "address"
        }
      ],
      "stateMutability": "view",
      "type": "function"
    },
    {
      "inputs": [],
      "name": "renounceOwnership",
      "outputs": [],
      "stateMutability": "nonpayable",
      "type": "function"
    },
    {
      "inputs": [
        {
          "internalType": "uint256",
          "name": "",
          "type": "uint256"
        }
      ],
      "name": "tierGames",
      "outputs": [
        {
          "internalType": "uint256",
          "name": "count",
          "type": "uint256"
        }
      ],
      "stateMutability": "view",
      "type": "function"
    },
    {
      "inputs": [
        {
          "internalType": "address",
          "name": "newOwner",
          "type": "address"
        }
      ],
      "name": "transferOwnership",
      "outputs": [],
      "stateMutability": "nonpayable",
      "type": "function"
    },
    {
      "inputs": [
        {
          "internalType": "uint256",
          "name": "tier",
          "type": "uint256"
        },
        {
          "internalType": "address",
          "name": "NFTGame",
          "type": "address"
        }
      ],
      "name": "setGameNFT",
      "outputs": [],
      "stateMutability": "nonpayable",
      "type": "function"
    },
    {
      "inputs": [],
      "name": "openCommonLootBox",
      "outputs": [],
      "stateMutability": "nonpayable",
      "type": "function"
    },
    {
      "inputs": [],
      "name": "openRareLootBox",
      "outputs": [],
      "stateMutability": "nonpayable",
      "type": "function"
    },
    {
      "inputs": [],
      "name": "openLegendaryLootBox",
      "outputs": [],
      "stateMutability": "nonpayable",
      "type": "function"
    }
  ],
  "bytecode": "0x608060405234801561001057600080fd5b5060405161096d38038061096d83398101604081905261002f916100ad565b6100383361005d565b600280546001600160a01b0319166001600160a01b03929092169190911790556100dd565b600080546001600160a01b038381166001600160a01b0319831681178455604051919092169283917f8be0079c531659141344cd1fd0a4f28419497f9722a3daafe3b4186f6b6457e09190a35050565b6000602082840312156100bf57600080fd5b81516001600160a01b03811681146100d657600080fd5b9392505050565b610881806100ec6000396000f3fe608060405234801561001057600080fd5b50600436106100885760003560e01c8063757a37821161005b578063757a3782146100ba5780638da5cb5b146100f15780639ec449ff1461010c578063f2fde38b1461011457600080fd5b806301f83e691461008d5780632a8593fd14610097578063465bebc6146100aa578063715018a6146100b2575b600080fd5b610095610127565b005b6100956100a536600461076d565b610250565b610095610314565b610095610442565b6100de6100c8366004610799565b6001602081905260009182526040909120015481565b6040519081526020015b60405180910390f35b6000546040516001600160a01b0390911681526020016100e8565b610095610478565b6100956101223660046107b2565b610555565b600254604051637a94c56560e11b815233600482015260016024820181905260448201526001600160a01b039091169063f5298aca90606401600060405180830381600087803b15801561017a57600080fd5b505af115801561018e573d6000803e3d6000fd5b5050505061019d6001806105f0565b60046101ab600a6002610695565b11156101c2576101bd600160036105f0565b6101ce565b6101ce600060046105f0565b60006101dc600a6005610695565b905060048110156101f8576101f3600060066105f0565b610219565b600781111561020d576101f3600260076105f0565b610219600160096105f0565b6040513381527f38a3f7ceb67503bc2360cbbe6270e5810211dcb0524664fed6a9665959549aa5906020015b60405180910390a150565b6000546001600160a01b031633146102835760405162461bcd60e51b815260040161027a906107cd565b60405180910390fd5b600082815260016020819052604082209081018054849391826102a583610802565b909155508152602080820192909252604090810160002080546001600160a01b0319166001600160a01b039485161790558051858152928416918301919091527fcc06467066424df5dc3a764026cdf7f20a2ad929eafbf3a12a8ea29f69d01c06910160405180910390a15050565b60028054604051637a94c56560e11b81523360048201526024810192909252600160448301526001600160a01b03169063f5298aca90606401600060405180830381600087803b15801561036757600080fd5b505af115801561037b573d6000803e3d6000fd5b5050505061038a6001806105f0565b610396600260146105f0565b60056103a4600a6002610695565b11156103bb576103b6600060036105f0565b6103c7565b6103c7600160046105f0565b60006103d5600a6005610695565b905060038110156103f1576103ec600060066105f0565b610412565b6006811115610406576103ec600260076105f0565b610412600160096105f0565b6040513381527f7f84cd980ef54b795e18fcaaf2364cde646048f87b699787c8cfa021afe1d7b490602001610245565b6000546001600160a01b0316331461046c5760405162461bcd60e51b815260040161027a906107cd565b6104766000610701565b565b600254604051637a94c56560e11b815233600482015260006024820152600160448201526001600160a01b039091169063f5298aca90606401600060405180830381600087803b1580156104cb57600080fd5b505af11580156104df573d6000803e3d6000fd5b505050506104ef600060016105f0565b60076104fd600a6002610695565b11156105145761050f600060036105f0565b610520565b610520600060046105f0565b6040513381527ff80b6bce587149ae6620259ae1059f7c6768365e40635367f03f0672053b21cf9060200160405180910390a1565b6000546001600160a01b0316331461057f5760405162461bcd60e51b815260040161027a906107cd565b6001600160a01b0381166105e45760405162461bcd60e51b815260206004820152602660248201527f4f776e61626c653a206e6577206f776e657220697320746865207a65726f206160448201526564647265737360d01b606482015260840161027a565b6105ed81610701565b50565b60008281526001602081905260408220015461060c9083610695565b600084815260016020818152604080842085855290915291829020805491015491516340c10f1960e01b815233600482015260248101929092529192506001600160a01b03909116906340c10f1990604401600060405180830381600087803b15801561067857600080fd5b505af115801561068c573d6000803e3d6000fd5b50505050505050565b600082444233856040516020016106d79493929190938452602084019290925260601b6bffffffffffffffffffffffff19166040830152605482015260740190565b6040516020818303038152906040528051906020012060001c6106fa9190610829565b9392505050565b600080546001600160a01b038381166001600160a01b0319831681178455604051919092169283917f8be0079c531659141344cd1fd0a4f28419497f9722a3daafe3b4186f6b6457e09190a35050565b80356001600160a01b038116811461076857600080fd5b919050565b6000806040838503121561078057600080fd5b8235915061079060208401610751565b90509250929050565b6000602082840312156107ab57600080fd5b5035919050565b6000602082840312156107c457600080fd5b6106fa82610751565b6020808252818101527f4f776e61626c653a2063616c6c6572206973206e6f7420746865206f776e6572604082015260600190565b60006001820161082257634e487b7160e01b600052601160045260246000fd5b5060010190565b60008261084657634e487b7160e01b600052601260045260246000fd5b50069056fea2646970667358221220819059681e4c55d7ac91338b9571db55461d14e378c2234914ee3c4a772d949d64736f6c63430008100033",
  "immutableReferences": {},
  "source": "// SPDX-License-Identifier: MIT\npragma solidity 0.8.16;\npragma experimental ABIEncoderV2;\n\nimport \"@openzeppelin/contracts/access/Ownable.sol\";\nimport \"@openzeppelin/contracts/token/ERC20/IERC20.sol\";\nimport \"@openzeppelin/contracts/token/ERC20/utils/SafeERC20.sol\";\nimport \"../loot_box/interfaces/IBurnLootBox.sol\";\nimport \"../nft_game/interfaces/IMintGame.sol\";\n\n\ncontract LootBoxFullRandomOpener is Ownable {\n    uint256 constant COMMON = 0;\n    uint256 constant RARE = 1;\n    uint256 constant LEGENDARY = 2;\n\n    event SetGameNFT(uint256 tier, address NFTGame);\n    event OpenCommonLootBox(address caller);\n    event OpenRareLootBox(address caller);\n    event OpenLegendaryLootBox(address caller);\n\n    struct ArrayOfGames {\n        mapping(uint256 => Game) games;\n        uint256 count;\n    }\n\n    struct Game {\n        address NFTGame;\n        uint256 countOfMint;\n    }\n\n    mapping(uint256 => ArrayOfGames) public tierGames;\n    address lootBox;\n\n    constructor(address _lootBox) {\n        lootBox = _lootBox;\n    }\n\n    function randMod(uint256 _modulus, uint256 salt)\n    internal\n    view\n    returns (uint256)\n    {\n        return\n        uint256(\n            keccak256(\n                abi.encodePacked(\n                    block.difficulty,\n                    block.timestamp,\n                    msg.sender,\n                    salt\n                )\n            )\n        ) % _modulus;\n    }\n\n    function setGameNFT(uint256 tier, address NFTGame) external onlyOwner {\n        tierGames[tier].games[tierGames[tier].count++].NFTGame = NFTGame;\n        emit SetGameNFT(tier, NFTGame);\n    }\n\n\n    function mintRandomGameByTier(uint256 tier, uint256 salt) internal {\n        uint256 id = randMod(tierGames[tier].count, salt);\n        IMintGame(tierGames[tier].games[id].NFTGame).mint(\n            msg.sender,\n            tierGames[tier].games[id].countOfMint\n        );\n    }\n\n    function openCommonLootBox() external {\n        IBurnLootBox(lootBox).burn(msg.sender, COMMON, 1);\n        mintRandomGameByTier(COMMON, 1);\n        if (randMod(10, 2) > 7) {\n            mintRandomGameByTier(COMMON, 3);\n        } else {\n            mintRandomGameByTier(COMMON, 4);\n        }\n        emit OpenCommonLootBox(msg.sender);\n    }\n\n    function openRareLootBox() external {\n        IBurnLootBox(lootBox).burn(msg.sender, RARE, 1);\n        mintRandomGameByTier(RARE, 1);\n        if (randMod(10, 2) > 4) {\n            mintRandomGameByTier(RARE, 3);\n        } else {\n            mintRandomGameByTier(COMMON, 4);\n        }\n        uint randNumber = randMod(10, 5);\n        if (randNumber < 4) {\n            mintRandomGameByTier(COMMON, 6);\n        } else if (randNumber > 7) {\n            mintRandomGameByTier(LEGENDARY, 7);\n        }\n        else {\n            mintRandomGameByTier(RARE, 9);\n        }\n        emit OpenRareLootBox(msg.sender);\n    }\n\n    function openLegendaryLootBox() external {\n        IBurnLootBox(lootBox).burn(msg.sender, LEGENDARY, 1);\n        mintRandomGameByTier(RARE, 1);\n        mintRandomGameByTier(LEGENDARY, 20);\n        if (randMod(10, 2) > 5) {\n            mintRandomGameByTier(COMMON, 3);\n        } else {\n            mintRandomGameByTier(RARE, 4);\n        }\n        uint randNumber = randMod(10, 5);\n        if (randNumber < 3) {\n            mintRandomGameByTier(COMMON, 6);\n        } else if (randNumber > 6) {\n            mintRandomGameByTier(LEGENDARY, 7);\n        }\n        else {\n            mintRandomGameByTier(RARE, 9);\n        }\n        emit OpenLegendaryLootBox(msg.sender);\n    }\n}\n",
  "sourcePath": "/home/ilau/hackotaton_MC/example-lootbox/contracts/loot_box_opener/LootBoxFullRandomOpener.sol",
  "compiler": {
    "name": "solc",
    "version": "0.8.16+commit.07a7930e.Emscripten.clang"
  },
  "schemaVersion": "3.4.5",
  "updatedAt": "2022-08-13T13:12:51.656Z",
  "devdoc": {
    "kind": "dev",
    "methods": {
      "owner()": {
        "details": "Returns the address of the current owner."
      },
      "renounceOwnership()": {
        "details": "Leaves the contract without owner. It will not be possible to call `onlyOwner` functions anymore. Can only be called by the current owner. NOTE: Renouncing ownership will leave the contract without an owner, thereby removing any functionality that is only available to the owner."
      },
      "transferOwnership(address)": {
        "details": "Transfers ownership of the contract to a new account (`newOwner`). Can only be called by the current owner."
      }
    },
    "version": 1
  },
  "userdoc": {
    "kind": "user",
    "methods": {},
    "version": 1
  }
}