{
  "contractName": "LootBoxOpener",
  "abi": [
    {
      "inputs": [
        {
          "internalType": "address",
          "name": "_lootBox",
          "type": "address"
        }
      ],
      "stateMutability": "nonpayable",
      "type": "constructor"
    },
    {
      "anonymous": false,
      "inputs": [
        {
          "indexed": false,
          "internalType": "address",
          "name": "caller",
          "type": "address"
        }
      ],
      "name": "OpenCommonLootBox",
      "type": "event"
    },
    {
      "anonymous": false,
      "inputs": [
        {
          "indexed": false,
          "internalType": "address",
          "name": "caller",
          "type": "address"
        }
      ],
      "name": "OpenLegendaryLootBox",
      "type": "event"
    },
    {
      "anonymous": false,
      "inputs": [
        {
          "indexed": false,
          "internalType": "address",
          "name": "caller",
          "type": "address"
        }
      ],
      "name": "OpenRareLootBox",
      "type": "event"
    },
    {
      "anonymous": false,
      "inputs": [
        {
          "indexed": true,
          "internalType": "address",
          "name": "previousOwner",
          "type": "address"
        },
        {
          "indexed": true,
          "internalType": "address",
          "name": "newOwner",
          "type": "address"
        }
      ],
      "name": "OwnershipTransferred",
      "type": "event"
    },
    {
      "anonymous": false,
      "inputs": [
        {
          "indexed": false,
          "internalType": "uint256",
          "name": "tier",
          "type": "uint256"
        },
        {
          "indexed": false,
          "internalType": "address",
          "name": "NFTGame",
          "type": "address"
        }
      ],
      "name": "SetGameNFT",
      "type": "event"
    },
    {
      "inputs": [],
      "name": "owner",
      "outputs": [
        {
          "internalType": "address",
          "name": "",
          "type": "address"
        }
      ],
      "stateMutability": "view",
      "type": "function"
    },
    {
      "inputs": [],
      "name": "renounceOwnership",
      "outputs": [],
      "stateMutability": "nonpayable",
      "type": "function"
    },
    {
      "inputs": [
        {
          "internalType": "uint256",
          "name": "",
          "type": "uint256"
        }
      ],
      "name": "tierGames",
      "outputs": [
        {
          "internalType": "uint256",
          "name": "count",
          "type": "uint256"
        }
      ],
      "stateMutability": "view",
      "type": "function"
    },
    {
      "inputs": [
        {
          "internalType": "address",
          "name": "newOwner",
          "type": "address"
        }
      ],
      "name": "transferOwnership",
      "outputs": [],
      "stateMutability": "nonpayable",
      "type": "function"
    },
    {
      "inputs": [
        {
          "internalType": "uint256",
          "name": "tier",
          "type": "uint256"
        },
        {
          "internalType": "address",
          "name": "NFTGame",
          "type": "address"
        }
      ],
      "name": "setGameNFT",
      "outputs": [],
      "stateMutability": "nonpayable",
      "type": "function"
    },
    {
      "inputs": [],
      "name": "openCommonLootBox",
      "outputs": [],
      "stateMutability": "nonpayable",
      "type": "function"
    },
    {
      "inputs": [],
      "name": "openRareLootBox",
      "outputs": [],
      "stateMutability": "nonpayable",
      "type": "function"
    },
    {
      "inputs": [],
      "name": "openLegendaryLootBox",
      "outputs": [],
      "stateMutability": "nonpayable",
      "type": "function"
    }
  ],
  "bytecode": "0x608060405234801561001057600080fd5b50604051610b4f380380610b4f83398101604081905261002f916100ad565b6100383361005d565b600280546001600160a01b0319166001600160a01b03929092169190911790556100dd565b600080546001600160a01b038381166001600160a01b0319831681178455604051919092169283917f8be0079c531659141344cd1fd0a4f28419497f9722a3daafe3b4186f6b6457e09190a35050565b6000602082840312156100bf57600080fd5b81516001600160a01b03811681146100d657600080fd5b9392505050565b610a63806100ec6000396000f3fe608060405234801561001057600080fd5b50600436106100885760003560e01c8063757a37821161005b578063757a3782146100ba5780638da5cb5b146100f15780639ec449ff1461010c578063f2fde38b1461011457600080fd5b806301f83e691461008d5780632a8593fd14610097578063465bebc6146100aa578063715018a6146100b2575b600080fd5b610095610127565b005b6100956100a5366004610908565b610265565b610095610322565b610095610467565b6100de6100c8366004610934565b6001602081905260009182526040909120015481565b6040519081526020015b60405180910390f35b6000546040516001600160a01b0390911681526020016100e8565b61009561049d565b61009561012236600461094d565b610587565b600254604051637a94c56560e11b815233600482015260016024820181905260448201526001600160a01b039091169063f5298aca90606401600060405180830381600087803b15801561017a57600080fd5b505af115801561018e573d6000803e3d6000fd5b5050505060606101a060018083610622565b905060046101b0600a60026107db565b11156101ca576101c36001600383610622565b90506101da565b6101d76000600483610622565b90505b60006101e8600a60056107db565b90506004811015610207576102006000600684610622565b915061022d565b600781111561021d576102006002600784610622565b61022a6001600984610622565b91505b6040513381527f38a3f7ceb67503bc2360cbbe6270e5810211dcb0524664fed6a9665959549aa5906020015b60405180910390a15050565b6000546001600160a01b031633146102985760405162461bcd60e51b815260040161028f90610968565b60405180910390fd5b600082815260016020819052604082209081018054849391826102ba836109b3565b909155508152602080820192909252604090810160002080546001600160a01b0319166001600160a01b039485161790558051858152928416918301919091527fcc06467066424df5dc3a764026cdf7f20a2ad929eafbf3a12a8ea29f69d01c069101610259565b60028054604051637a94c56560e11b81523360048201526024810192909252600160448301526001600160a01b03169063f5298aca90606401600060405180830381600087803b15801561037557600080fd5b505af1158015610389573d6000803e3d6000fd5b50505050606061039b60018083610622565b90506103aa6002601483610622565b905060056103ba600a60026107db565b11156103d4576103cd6000600383610622565b90506103e4565b6103e16001600483610622565b90505b60006103f2600a60056107db565b905060038110156104115761040a6000600684610622565b9150610437565b60068111156104275761040a6002600784610622565b6104346001600984610622565b91505b6040513381527f7f84cd980ef54b795e18fcaaf2364cde646048f87b699787c8cfa021afe1d7b490602001610259565b6000546001600160a01b031633146104915760405162461bcd60e51b815260040161028f90610968565b61049b6000610849565b565b600254604051637a94c56560e11b815233600482015260006024820152600160448201526001600160a01b039091169063f5298aca90606401600060405180830381600087803b1580156104f057600080fd5b505af1158015610504573d6000803e3d6000fd5b5050505060606105176000600183610622565b90506007610527600a60026107db565b11156105415761053a6000600383610622565b9050610551565b61054e6000600483610622565b90505b6040513381527ff80b6bce587149ae6620259ae1059f7c6768365e40635367f03f0672053b21cf9060200160405180910390a150565b6000546001600160a01b031633146105b15760405162461bcd60e51b815260040161028f90610968565b6001600160a01b0381166106165760405162461bcd60e51b815260206004820152602660248201527f4f776e61626c653a206e6577206f776e657220697320746865207a65726f206160448201526564647265737360d01b606482015260840161028f565b61061f81610849565b50565b6000838152600160208190526040822001546060919061064290856107db565b90505b61064f8382610899565b610687578361065d816109b3565b9450506106806001600087815260200190815260200160002060010154856107db565b9050610645565b60008351600161069791906109cc565b67ffffffffffffffff8111156106af576106af6109df565b6040519080825280602002602001820160405280156106d8578160200160208202803683370190505b50905060005b8451811015610730578481815181106106f9576106f96109f5565b6020026020010151828281518110610713576107136109f5565b602090810291909101015280610728816109b3565b9150506106de565b508181855181518110610745576107456109f5565b60209081029190910181019190915260008781526001808352604080832086845290935290829020805491015491516340c10f1960e01b815233600482015260248101929092526001600160a01b0316906340c10f1990604401600060405180830381600087803b1580156107b957600080fd5b505af11580156107cd573d6000803e3d6000fd5b509298975050505050505050565b6000824442338560405160200161081d9493929190938452602084019290925260601b6bffffffffffffffffffffffff19166040830152605482015260740190565b6040516020818303038152906040528051906020012060001c6108409190610a0b565b90505b92915050565b600080546001600160a01b038381166001600160a01b0319831681178455604051919092169283917f8be0079c531659141344cd1fd0a4f28419497f9722a3daafe3b4186f6b6457e09190a35050565b6000805b83518110156108e257828482815181106108b9576108b96109f5565b6020026020010151036108d0576000915050610843565b806108da816109b3565b91505061089d565b5060019392505050565b80356001600160a01b038116811461090357600080fd5b919050565b6000806040838503121561091b57600080fd5b8235915061092b602084016108ec565b90509250929050565b60006020828403121561094657600080fd5b5035919050565b60006020828403121561095f57600080fd5b610840826108ec565b6020808252818101527f4f776e61626c653a2063616c6c6572206973206e6f7420746865206f776e6572604082015260600190565b634e487b7160e01b600052601160045260246000fd5b6000600182016109c5576109c561099d565b5060010190565b808201808211156108435761084361099d565b634e487b7160e01b600052604160045260246000fd5b634e487b7160e01b600052603260045260246000fd5b600082610a2857634e487b7160e01b600052601260045260246000fd5b50069056fea2646970667358221220960017e013b99af2d83439c4ced6435dbb2adce8e0b74faf6e7504ac0d79f33964736f6c63430008100033",
  "immutableReferences": {},
  "source": "// SPDX-License-Identifier: MIT\npragma solidity 0.8.16;\npragma experimental ABIEncoderV2;\n\nimport \"@openzeppelin/contracts/access/Ownable.sol\";\nimport \"@openzeppelin/contracts/token/ERC20/IERC20.sol\";\nimport \"@openzeppelin/contracts/token/ERC20/utils/SafeERC20.sol\";\nimport \"../loot_box/interfaces/IBurnLootBox.sol\";\nimport \"../nft_game/interfaces/IMintGame.sol\";\n\ncontract LootBoxOpener is Ownable {\n    uint256 constant COMMON = 0;\n    uint256 constant RARE = 1;\n    uint256 constant LEGENDARY = 2;\n\n    event SetGameNFT(uint256 tier, address NFTGame);\n    event OpenCommonLootBox(address caller);\n    event OpenRareLootBox(address caller);\n    event OpenLegendaryLootBox(address caller);\n\n    struct ArrayOfGames {\n        mapping(uint256 => Game) games;\n        uint256 count;\n    }\n\n    struct Game {\n        address NFTGame;\n        uint256 countOfMint;\n    }\n\n    mapping(uint256 => ArrayOfGames) public tierGames;\n    address lootBox;\n\n    constructor(address _lootBox) {\n        lootBox = _lootBox;\n    }\n\n    function randMod(uint256 _modulus, uint256 salt)\n    internal\n    returns (uint256)\n    {\n        return\n        uint256(\n            keccak256(\n                abi.encodePacked(\n                    block.difficulty,\n                    block.timestamp,\n                    msg.sender,\n                    salt\n                )\n            )\n        ) % _modulus;\n    }\n\n    function setGameNFT(uint256 tier, address NFTGame) external onlyOwner {\n        tierGames[tier].games[tierGames[tier].count++].NFTGame = NFTGame;\n        emit SetGameNFT(tier, NFTGame);\n    }\n\n    function arrayNotHaveNumber(uint256[] memory array, uint number) internal returns (bool){\n        for (uint i = 0; i < array.length; i++) {\n            if (array[i] == number) {\n                return false;\n            }\n        }\n        return true;\n    }\n\n    function mintRandomGameByTier(uint256 tier, uint256 salt, uint256[] memory received) internal returns(uint256[] memory) {\n\n        uint256 id = randMod(tierGames[tier].count, salt);\n        while (!arrayNotHaveNumber(received, id)) {\n            salt++;\n            id = randMod(tierGames[tier].count, salt);\n        }\n        uint256[] memory newReceived = new uint256[](received.length + 1);\n        for (uint i = 0; i < received.length; i++) {\n            newReceived[i] = received[i];\n        }\n        newReceived[received.length] = id;\n        IMintGame(tierGames[tier].games[id].NFTGame).mint(\n            msg.sender,\n            tierGames[tier].games[id].countOfMint\n        );\n        return newReceived;\n    }\n\n    function openCommonLootBox() external {\n        IBurnLootBox(lootBox).burn(msg.sender, COMMON, 1);\n        uint256[] memory received;\n        received = mintRandomGameByTier(COMMON, 1, received);\n        if (randMod(10, 2) > 7) {\n            received = mintRandomGameByTier(COMMON, 3, received);\n        } else {\n            received = mintRandomGameByTier(COMMON, 4, received);\n        }\n        emit OpenCommonLootBox(msg.sender);\n    }\n\n    function openRareLootBox() external {\n        IBurnLootBox(lootBox).burn(msg.sender, RARE, 1);\n        uint256[] memory received;\n        received = mintRandomGameByTier(RARE, 1, received);\n        if (randMod(10, 2) > 4) {\n            received = mintRandomGameByTier(RARE, 3, received);\n        } else {\n            received = mintRandomGameByTier(COMMON, 4, received);\n        }\n        uint randNumber = randMod(10, 5);\n        if (randNumber < 4) {\n            received = mintRandomGameByTier(COMMON, 6, received);\n        } else if (randNumber > 7) {\n            received = mintRandomGameByTier(LEGENDARY, 7, received);\n        }\n        else {\n            received = mintRandomGameByTier(RARE, 9, received);\n        }\n        emit OpenRareLootBox(msg.sender);\n    }\n\n    function openLegendaryLootBox() external {\n        IBurnLootBox(lootBox).burn(msg.sender, LEGENDARY, 1);\n        uint256[] memory received;\n        received = mintRandomGameByTier(RARE, 1, received);\n        received = mintRandomGameByTier(LEGENDARY, 20, received);\n        if (randMod(10, 2) > 5) {\n            received = mintRandomGameByTier(COMMON, 3, received);\n        } else {\n            received = mintRandomGameByTier(RARE, 4, received);\n        }\n        uint randNumber = randMod(10, 5);\n        if (randNumber < 3) {\n            received = mintRandomGameByTier(COMMON, 6, received);\n        } else if (randNumber > 6) {\n            received = mintRandomGameByTier(LEGENDARY, 7, received);\n        }\n        else {\n            received = mintRandomGameByTier(RARE, 9, received);\n        }\n        emit OpenLegendaryLootBox(msg.sender);\n    }\n}\n",
  "sourcePath": "/home/ilau/hackotaton_MC/example-lootbox/contracts/loot_box_opener/LootBoxOpener.sol",
  "compiler": {
    "name": "solc",
    "version": "0.8.16+commit.07a7930e.Emscripten.clang"
  },
  "schemaVersion": "3.4.5",
  "updatedAt": "2022-08-13T12:12:35.139Z",
  "devdoc": {
    "kind": "dev",
    "methods": {
      "owner()": {
        "details": "Returns the address of the current owner."
      },
      "renounceOwnership()": {
        "details": "Leaves the contract without owner. It will not be possible to call `onlyOwner` functions anymore. Can only be called by the current owner. NOTE: Renouncing ownership will leave the contract without an owner, thereby removing any functionality that is only available to the owner."
      },
      "transferOwnership(address)": {
        "details": "Transfers ownership of the contract to a new account (`newOwner`). Can only be called by the current owner."
      }
    },
    "version": 1
  },
  "userdoc": {
    "kind": "user",
    "methods": {},
    "version": 1
  }
}