{
  "contractName": "LootBox",
  "abi": [
    {
      "inputs": [
        {
          "internalType": "string",
          "name": "uri_",
          "type": "string"
        }
      ],
      "stateMutability": "nonpayable",
      "type": "constructor"
    },
    {
      "anonymous": false,
      "inputs": [
        {
          "indexed": true,
          "internalType": "address",
          "name": "account",
          "type": "address"
        },
        {
          "indexed": true,
          "internalType": "address",
          "name": "operator",
          "type": "address"
        },
        {
          "indexed": false,
          "internalType": "bool",
          "name": "approved",
          "type": "bool"
        }
      ],
      "name": "ApprovalForAll",
      "type": "event"
    },
    {
      "anonymous": false,
      "inputs": [
        {
          "indexed": true,
          "internalType": "address",
          "name": "previousOwner",
          "type": "address"
        },
        {
          "indexed": true,
          "internalType": "address",
          "name": "newOwner",
          "type": "address"
        }
      ],
      "name": "OwnershipTransferred",
      "type": "event"
    },
    {
      "anonymous": false,
      "inputs": [
        {
          "indexed": true,
          "internalType": "address",
          "name": "operator",
          "type": "address"
        },
        {
          "indexed": true,
          "internalType": "address",
          "name": "from",
          "type": "address"
        },
        {
          "indexed": true,
          "internalType": "address",
          "name": "to",
          "type": "address"
        },
        {
          "indexed": false,
          "internalType": "uint256[]",
          "name": "ids",
          "type": "uint256[]"
        },
        {
          "indexed": false,
          "internalType": "uint256[]",
          "name": "values",
          "type": "uint256[]"
        }
      ],
      "name": "TransferBatch",
      "type": "event"
    },
    {
      "anonymous": false,
      "inputs": [
        {
          "indexed": true,
          "internalType": "address",
          "name": "operator",
          "type": "address"
        },
        {
          "indexed": true,
          "internalType": "address",
          "name": "from",
          "type": "address"
        },
        {
          "indexed": true,
          "internalType": "address",
          "name": "to",
          "type": "address"
        },
        {
          "indexed": false,
          "internalType": "uint256",
          "name": "id",
          "type": "uint256"
        },
        {
          "indexed": false,
          "internalType": "uint256",
          "name": "value",
          "type": "uint256"
        }
      ],
      "name": "TransferSingle",
      "type": "event"
    },
    {
      "anonymous": false,
      "inputs": [
        {
          "indexed": false,
          "internalType": "string",
          "name": "value",
          "type": "string"
        },
        {
          "indexed": true,
          "internalType": "uint256",
          "name": "id",
          "type": "uint256"
        }
      ],
      "name": "URI",
      "type": "event"
    },
    {
      "inputs": [
        {
          "internalType": "address",
          "name": "account",
          "type": "address"
        },
        {
          "internalType": "uint256",
          "name": "id",
          "type": "uint256"
        }
      ],
      "name": "balanceOf",
      "outputs": [
        {
          "internalType": "uint256",
          "name": "",
          "type": "uint256"
        }
      ],
      "stateMutability": "view",
      "type": "function"
    },
    {
      "inputs": [
        {
          "internalType": "address[]",
          "name": "accounts",
          "type": "address[]"
        },
        {
          "internalType": "uint256[]",
          "name": "ids",
          "type": "uint256[]"
        }
      ],
      "name": "balanceOfBatch",
      "outputs": [
        {
          "internalType": "uint256[]",
          "name": "",
          "type": "uint256[]"
        }
      ],
      "stateMutability": "view",
      "type": "function"
    },
    {
      "inputs": [
        {
          "internalType": "address",
          "name": "account",
          "type": "address"
        },
        {
          "internalType": "uint256",
          "name": "id",
          "type": "uint256"
        },
        {
          "internalType": "uint256",
          "name": "value",
          "type": "uint256"
        }
      ],
      "name": "burn",
      "outputs": [],
      "stateMutability": "nonpayable",
      "type": "function"
    },
    {
      "inputs": [
        {
          "internalType": "address",
          "name": "account",
          "type": "address"
        },
        {
          "internalType": "uint256[]",
          "name": "ids",
          "type": "uint256[]"
        },
        {
          "internalType": "uint256[]",
          "name": "values",
          "type": "uint256[]"
        }
      ],
      "name": "burnBatch",
      "outputs": [],
      "stateMutability": "nonpayable",
      "type": "function"
    },
    {
      "inputs": [
        {
          "internalType": "address",
          "name": "account",
          "type": "address"
        },
        {
          "internalType": "address",
          "name": "operator",
          "type": "address"
        }
      ],
      "name": "isApprovedForAll",
      "outputs": [
        {
          "internalType": "bool",
          "name": "",
          "type": "bool"
        }
      ],
      "stateMutability": "view",
      "type": "function"
    },
    {
      "inputs": [
        {
          "internalType": "uint256",
          "name": "",
          "type": "uint256"
        }
      ],
      "name": "names",
      "outputs": [
        {
          "internalType": "string",
          "name": "",
          "type": "string"
        }
      ],
      "stateMutability": "view",
      "type": "function"
    },
    {
      "inputs": [],
      "name": "owner",
      "outputs": [
        {
          "internalType": "address",
          "name": "",
          "type": "address"
        }
      ],
      "stateMutability": "view",
      "type": "function"
    },
    {
      "inputs": [],
      "name": "renounceOwnership",
      "outputs": [],
      "stateMutability": "nonpayable",
      "type": "function"
    },
    {
      "inputs": [
        {
          "internalType": "address",
          "name": "from",
          "type": "address"
        },
        {
          "internalType": "address",
          "name": "to",
          "type": "address"
        },
        {
          "internalType": "uint256[]",
          "name": "ids",
          "type": "uint256[]"
        },
        {
          "internalType": "uint256[]",
          "name": "amounts",
          "type": "uint256[]"
        },
        {
          "internalType": "bytes",
          "name": "data",
          "type": "bytes"
        }
      ],
      "name": "safeBatchTransferFrom",
      "outputs": [],
      "stateMutability": "nonpayable",
      "type": "function"
    },
    {
      "inputs": [
        {
          "internalType": "address",
          "name": "from",
          "type": "address"
        },
        {
          "internalType": "address",
          "name": "to",
          "type": "address"
        },
        {
          "internalType": "uint256",
          "name": "id",
          "type": "uint256"
        },
        {
          "internalType": "uint256",
          "name": "amount",
          "type": "uint256"
        },
        {
          "internalType": "bytes",
          "name": "data",
          "type": "bytes"
        }
      ],
      "name": "safeTransferFrom",
      "outputs": [],
      "stateMutability": "nonpayable",
      "type": "function"
    },
    {
      "inputs": [
        {
          "internalType": "address",
          "name": "operator",
          "type": "address"
        },
        {
          "internalType": "bool",
          "name": "approved",
          "type": "bool"
        }
      ],
      "name": "setApprovalForAll",
      "outputs": [],
      "stateMutability": "nonpayable",
      "type": "function"
    },
    {
      "inputs": [
        {
          "internalType": "bytes4",
          "name": "interfaceId",
          "type": "bytes4"
        }
      ],
      "name": "supportsInterface",
      "outputs": [
        {
          "internalType": "bool",
          "name": "",
          "type": "bool"
        }
      ],
      "stateMutability": "view",
      "type": "function"
    },
    {
      "inputs": [
        {
          "internalType": "address",
          "name": "newOwner",
          "type": "address"
        }
      ],
      "name": "transferOwnership",
      "outputs": [],
      "stateMutability": "nonpayable",
      "type": "function"
    },
    {
      "inputs": [
        {
          "internalType": "uint256",
          "name": "id",
          "type": "uint256"
        }
      ],
      "name": "uri",
      "outputs": [
        {
          "internalType": "string",
          "name": "",
          "type": "string"
        }
      ],
      "stateMutability": "view",
      "type": "function"
    },
    {
      "inputs": [
        {
          "internalType": "uint256",
          "name": "tokenId",
          "type": "uint256"
        },
        {
          "internalType": "string",
          "name": "name",
          "type": "string"
        },
        {
          "internalType": "string",
          "name": "_tokenUri",
          "type": "string"
        }
      ],
      "name": "addTokenId",
      "outputs": [],
      "stateMutability": "nonpayable",
      "type": "function"
    },
    {
      "inputs": [
        {
          "internalType": "address",
          "name": "to",
          "type": "address"
        },
        {
          "internalType": "uint256",
          "name": "tokenId",
          "type": "uint256"
        },
        {
          "internalType": "uint256",
          "name": "amount",
          "type": "uint256"
        }
      ],
      "name": "mint",
      "outputs": [],
      "stateMutability": "nonpayable",
      "type": "function"
    },
    {
      "inputs": [
        {
          "internalType": "uint256",
          "name": "id",
          "type": "uint256"
        }
      ],
      "name": "totalSupply",
      "outputs": [
        {
          "internalType": "uint256",
          "name": "",
          "type": "uint256"
        }
      ],
      "stateMutability": "view",
      "type": "function"
    },
    {
      "inputs": [
        {
          "internalType": "uint256",
          "name": "id",
          "type": "uint256"
        }
      ],
      "name": "exists",
      "outputs": [
        {
          "internalType": "bool",
          "name": "",
          "type": "bool"
        }
      ],
      "stateMutability": "view",
      "type": "function"
    }
  ],
  "bytecode": "0x60806040523480156200001157600080fd5b506040516200239d3803806200239d8339810160408190526200003491620000cd565b80620000408162000053565b506200004c3362000065565b50620002fd565b600262000061828262000231565b5050565b600380546001600160a01b038381166001600160a01b0319831681179093556040519116919082907f8be0079c531659141344cd1fd0a4f28419497f9722a3daafe3b4186f6b6457e090600090a35050565b634e487b7160e01b600052604160045260246000fd5b60006020808385031215620000e157600080fd5b82516001600160401b0380821115620000f957600080fd5b818501915085601f8301126200010e57600080fd5b815181811115620001235762000123620000b7565b604051601f8201601f19908116603f011681019083821181831017156200014e576200014e620000b7565b8160405282815288868487010111156200016757600080fd5b600093505b828410156200018b57848401860151818501870152928501926200016c565b600086848301015280965050505050505092915050565b600181811c90821680620001b757607f821691505b602082108103620001d857634e487b7160e01b600052602260045260246000fd5b50919050565b601f8211156200022c57600081815260208120601f850160051c81016020861015620002075750805b601f850160051c820191505b81811015620002285782815560010162000213565b5050505b505050565b81516001600160401b038111156200024d576200024d620000b7565b62000265816200025e8454620001a2565b84620001de565b602080601f8311600181146200029d5760008415620002845750858301515b600019600386901b1c1916600185901b17855562000228565b600085815260208120601f198616915b82811015620002ce57888601518255948401946001909101908401620002ad565b5085821015620002ed5787850151600019600388901b60f8161c191681555b5050505050600190811b01905550565b612090806200030d6000396000f3fe608060405234801561001057600080fd5b50600436106101155760003560e01c8063715018a6116100a2578063bd85b03911610071578063bd85b0391461025c578063e985e9c51461027c578063f242432a146102b8578063f2fde38b146102cb578063f5298aca146102de57600080fd5b8063715018a6146102135780638da5cb5b1461021b578063a22cb46514610236578063b880b81a1461024957600080fd5b80632eb2c2d6116100e95780632eb2c2d6146101985780634622ab03146101ab5780634e1273f4146101be5780634f558e79146101de5780636b20c4541461020057600080fd5b8062fdd58e1461011a57806301ffc9a7146101405780630e89341c14610163578063156e29f614610183575b600080fd5b61012d610128366004611482565b6102f1565b6040519081526020015b60405180910390f35b61015361014e3660046114c2565b61038b565b6040519015158152602001610137565b6101766101713660046114e6565b6103db565b604051610137919061154f565b610196610191366004611562565b61041c565b005b6101966101a63660046116e1565b610466565b6101766101b93660046114e6565b6104fd565b6101d16101cc36600461178b565b610597565b6040516101379190611891565b6101536101ec3660046114e6565b600090815260056020526040902054151590565b61019661020e3660046118a4565b6106c1565b610196610704565b6003546040516001600160a01b039091168152602001610137565b610196610244366004611918565b61073a565b610196610257366004611954565b610749565b61012d61026a3660046114e6565b60009081526005602052604090205490565b61015361028a3660046119b7565b6001600160a01b03918216600090815260016020908152604080832093909416825291909152205460ff1690565b6101966102c63660046119ea565b6107aa565b6101966102d9366004611a4f565b6107ef565b6101966102ec366004611562565b61088a565b60006001600160a01b0383166103625760405162461bcd60e51b815260206004820152602b60248201527f455243313135353a2062616c616e636520717565727920666f7220746865207a60448201526a65726f206164647265737360a81b60648201526084015b60405180910390fd5b506000818152602081815260408083206001600160a01b03861684529091529020545b92915050565b60006001600160e01b03198216636cdb3d1360e11b14806103bc57506001600160e01b031982166303a24d0760e21b145b8061038557506301ffc9a760e01b6001600160e01b0319831614610385565b60606103e6826108cd565b600083815260066020908152604091829020915161040693929101611aa4565b6040516020818303038152906040529050919050565b6003546001600160a01b031633146104465760405162461bcd60e51b815260040161035990611b31565b61046183838360405180602001604052806000815250610961565b505050565b6001600160a01b0385163314806104825750610482853361028a565b6104e95760405162461bcd60e51b815260206004820152603260248201527f455243313135353a207472616e736665722063616c6c6572206973206e6f74206044820152711bdddb995c881b9bdc88185c1c1c9bdd995960721b6064820152608401610359565b6104f68585858585610a71565b5050505050565b6004602052600090815260409020805461051690611a6a565b80601f016020809104026020016040519081016040528092919081815260200182805461054290611a6a565b801561058f5780601f106105645761010080835404028352916020019161058f565b820191906000526020600020905b81548152906001019060200180831161057257829003601f168201915b505050505081565b606081518351146105fc5760405162461bcd60e51b815260206004820152602960248201527f455243313135353a206163636f756e747320616e6420696473206c656e677468604482015268040dad2e6dac2e8c6d60bb1b6064820152608401610359565b6000835167ffffffffffffffff81111561061857610618611595565b604051908082528060200260200182016040528015610641578160200160208202803683370190505b50905060005b84518110156106b95761068c85828151811061066557610665611b66565b602002602001015185838151811061067f5761067f611b66565b60200260200101516102f1565b82828151811061069e5761069e611b66565b60209081029190910101526106b281611b92565b9050610647565b509392505050565b6001600160a01b0383163314806106dd57506106dd833361028a565b6106f95760405162461bcd60e51b815260040161035990611bab565b610461838383610c1b565b6003546001600160a01b0316331461072e5760405162461bcd60e51b815260040161035990611b31565b6107386000610da9565b565b610745338383610dfb565b5050565b6003546001600160a01b031633146107735760405162461bcd60e51b815260040161035990611b31565b600083815260066020526040902061078b8282611c3a565b5060008381526004602052604090206107a48382611c3a565b50505050565b6001600160a01b0385163314806107c657506107c6853361028a565b6107e25760405162461bcd60e51b815260040161035990611bab565b6104f68585858585610edb565b6003546001600160a01b031633146108195760405162461bcd60e51b815260040161035990611b31565b6001600160a01b03811661087e5760405162461bcd60e51b815260206004820152602660248201527f4f776e61626c653a206e6577206f776e657220697320746865207a65726f206160448201526564647265737360d01b6064820152608401610359565b61088781610da9565b50565b6001600160a01b0383163314806108a657506108a6833361028a565b6108c25760405162461bcd60e51b815260040161035990611bab565b610461838383610ff8565b6060600280546108dc90611a6a565b80601f016020809104026020016040519081016040528092919081815260200182805461090890611a6a565b80156109555780601f1061092a57610100808354040283529160200191610955565b820191906000526020600020905b81548152906001019060200180831161093857829003601f168201915b50505050509050919050565b6001600160a01b0384166109c15760405162461bcd60e51b815260206004820152602160248201527f455243313135353a206d696e7420746f20746865207a65726f206164647265736044820152607360f81b6064820152608401610359565b336109e1816000876109d2886110f9565b6109db886110f9565b87611144565b6000848152602081815260408083206001600160a01b038916845290915281208054859290610a11908490611cfa565b909155505060408051858152602081018590526001600160a01b0380881692600092918516917fc3d58168c5ae7397731d063d5bbf3d657854427343f4c083240f7aacaa2d0f62910160405180910390a46104f681600087878787611250565b8151835114610a925760405162461bcd60e51b815260040161035990611d0d565b6001600160a01b038416610ab85760405162461bcd60e51b815260040161035990611d55565b33610ac7818787878787611144565b60005b8451811015610bad576000858281518110610ae757610ae7611b66565b602002602001015190506000858381518110610b0557610b05611b66565b602090810291909101810151600084815280835260408082206001600160a01b038e168352909352919091205490915081811015610b555760405162461bcd60e51b815260040161035990611d9a565b6000838152602081815260408083206001600160a01b038e8116855292528083208585039055908b16825281208054849290610b92908490611cfa565b9250508190555050505080610ba690611b92565b9050610aca565b50846001600160a01b0316866001600160a01b0316826001600160a01b03167f4a39dc06d4c0dbc64b70af90fd698a233a518aa5d07e595d983b8c0526c8f7fb8787604051610bfd929190611de4565b60405180910390a4610c138187878787876113ab565b505050505050565b6001600160a01b038316610c415760405162461bcd60e51b815260040161035990611e12565b8051825114610c625760405162461bcd60e51b815260040161035990611d0d565b6000339050610c8581856000868660405180602001604052806000815250611144565b60005b8351811015610d4a576000848281518110610ca557610ca5611b66565b602002602001015190506000848381518110610cc357610cc3611b66565b602090810291909101810151600084815280835260408082206001600160a01b038c168352909352919091205490915081811015610d135760405162461bcd60e51b815260040161035990611e55565b6000928352602083815260408085206001600160a01b038b1686529091529092209103905580610d4281611b92565b915050610c88565b5060006001600160a01b0316846001600160a01b0316826001600160a01b03167f4a39dc06d4c0dbc64b70af90fd698a233a518aa5d07e595d983b8c0526c8f7fb8686604051610d9b929190611de4565b60405180910390a450505050565b600380546001600160a01b038381166001600160a01b0319831681179093556040519116919082907f8be0079c531659141344cd1fd0a4f28419497f9722a3daafe3b4186f6b6457e090600090a35050565b816001600160a01b0316836001600160a01b031603610e6e5760405162461bcd60e51b815260206004820152602960248201527f455243313135353a2073657474696e6720617070726f76616c20737461747573604482015268103337b91039b2b63360b91b6064820152608401610359565b6001600160a01b03838116600081815260016020908152604080832094871680845294825291829020805460ff191686151590811790915591519182527f17307eab39ab6107e8899845ad3d59bd9653f200f220920489ca2b5937696c31910160405180910390a3505050565b6001600160a01b038416610f015760405162461bcd60e51b815260040161035990611d55565b33610f118187876109d2886110f9565b6000848152602081815260408083206001600160a01b038a16845290915290205483811015610f525760405162461bcd60e51b815260040161035990611d9a565b6000858152602081815260408083206001600160a01b038b8116855292528083208785039055908816825281208054869290610f8f908490611cfa565b909155505060408051868152602081018690526001600160a01b03808916928a821692918616917fc3d58168c5ae7397731d063d5bbf3d657854427343f4c083240f7aacaa2d0f62910160405180910390a4610fef828888888888611250565b50505050505050565b6001600160a01b03831661101e5760405162461bcd60e51b815260040161035990611e12565b3361104d8185600061102f876110f9565b611038876110f9565b60405180602001604052806000815250611144565b6000838152602081815260408083206001600160a01b03881684529091529020548281101561108e5760405162461bcd60e51b815260040161035990611e55565b6000848152602081815260408083206001600160a01b03898116808652918452828520888703905582518981529384018890529092908616917fc3d58168c5ae7397731d063d5bbf3d657854427343f4c083240f7aacaa2d0f62910160405180910390a45050505050565b6040805160018082528183019092526060916000919060208083019080368337019050509050828160008151811061113357611133611b66565b602090810291909101015292915050565b6001600160a01b0385166111cb5760005b83518110156111c95782818151811061117057611170611b66565b60200260200101516005600086848151811061118e5761118e611b66565b6020026020010151815260200190815260200160002060008282546111b39190611cfa565b909155506111c2905081611b92565b9050611155565b505b6001600160a01b038416610c135760005b8351811015610fef578281815181106111f7576111f7611b66565b60200260200101516005600086848151811061121557611215611b66565b60200260200101518152602001908152602001600020600082825461123a9190611e99565b90915550611249905081611b92565b90506111dc565b6001600160a01b0384163b15610c135760405163f23a6e6160e01b81526001600160a01b0385169063f23a6e61906112949089908990889088908890600401611eac565b6020604051808303816000875af19250505080156112cf575060408051601f3d908101601f191682019092526112cc91810190611ef1565b60015b61137b576112db611f0e565b806308c379a00361131457506112ef611f2a565b806112fa5750611316565b8060405162461bcd60e51b8152600401610359919061154f565b505b60405162461bcd60e51b815260206004820152603460248201527f455243313135353a207472616e7366657220746f206e6f6e20455243313135356044820152732932b1b2b4bb32b91034b6b83632b6b2b73a32b960611b6064820152608401610359565b6001600160e01b0319811663f23a6e6160e01b14610fef5760405162461bcd60e51b815260040161035990611fb4565b6001600160a01b0384163b15610c135760405163bc197c8160e01b81526001600160a01b0385169063bc197c81906113ef9089908990889088908890600401611ffc565b6020604051808303816000875af192505050801561142a575060408051601f3d908101601f1916820190925261142791810190611ef1565b60015b611436576112db611f0e565b6001600160e01b0319811663bc197c8160e01b14610fef5760405162461bcd60e51b815260040161035990611fb4565b80356001600160a01b038116811461147d57600080fd5b919050565b6000806040838503121561149557600080fd5b61149e83611466565b946020939093013593505050565b6001600160e01b03198116811461088757600080fd5b6000602082840312156114d457600080fd5b81356114df816114ac565b9392505050565b6000602082840312156114f857600080fd5b5035919050565b60005b8381101561151a578181015183820152602001611502565b50506000910152565b6000815180845261153b8160208601602086016114ff565b601f01601f19169290920160200192915050565b6020815260006114df6020830184611523565b60008060006060848603121561157757600080fd5b61158084611466565b95602085013595506040909401359392505050565b634e487b7160e01b600052604160045260246000fd5b601f8201601f1916810167ffffffffffffffff811182821017156115d1576115d1611595565b6040525050565b600067ffffffffffffffff8211156115f2576115f2611595565b5060051b60200190565b600082601f83011261160d57600080fd5b8135602061161a826115d8565b60405161162782826115ab565b83815260059390931b850182019282810191508684111561164757600080fd5b8286015b84811015611662578035835291830191830161164b565b509695505050505050565b600082601f83011261167e57600080fd5b813567ffffffffffffffff81111561169857611698611595565b6040516116af601f8301601f1916602001826115ab565b8181528460208386010111156116c457600080fd5b816020850160208301376000918101602001919091529392505050565b600080600080600060a086880312156116f957600080fd5b61170286611466565b945061171060208701611466565b9350604086013567ffffffffffffffff8082111561172d57600080fd5b61173989838a016115fc565b9450606088013591508082111561174f57600080fd5b61175b89838a016115fc565b9350608088013591508082111561177157600080fd5b5061177e8882890161166d565b9150509295509295909350565b6000806040838503121561179e57600080fd5b823567ffffffffffffffff808211156117b657600080fd5b818501915085601f8301126117ca57600080fd5b813560206117d7826115d8565b6040516117e482826115ab565b83815260059390931b850182019282810191508984111561180457600080fd5b948201945b838610156118295761181a86611466565b82529482019490820190611809565b9650508601359250508082111561183f57600080fd5b5061184c858286016115fc565b9150509250929050565b600081518084526020808501945080840160005b838110156118865781518752958201959082019060010161186a565b509495945050505050565b6020815260006114df6020830184611856565b6000806000606084860312156118b957600080fd5b6118c284611466565b9250602084013567ffffffffffffffff808211156118df57600080fd5b6118eb878388016115fc565b9350604086013591508082111561190157600080fd5b5061190e868287016115fc565b9150509250925092565b6000806040838503121561192b57600080fd5b61193483611466565b91506020830135801515811461194957600080fd5b809150509250929050565b60008060006060848603121561196957600080fd5b83359250602084013567ffffffffffffffff8082111561198857600080fd5b6119948783880161166d565b935060408601359150808211156119aa57600080fd5b5061190e8682870161166d565b600080604083850312156119ca57600080fd5b6119d383611466565b91506119e160208401611466565b90509250929050565b600080600080600060a08688031215611a0257600080fd5b611a0b86611466565b9450611a1960208701611466565b93506040860135925060608601359150608086013567ffffffffffffffff811115611a4357600080fd5b61177e8882890161166d565b600060208284031215611a6157600080fd5b6114df82611466565b600181811c90821680611a7e57607f821691505b602082108103611a9e57634e487b7160e01b600052602260045260246000fd5b50919050565b600083516020611ab782858389016114ff565b818401915060008554611ac981611a6a565b60018281168015611ae15760018114611af657611b22565b60ff1984168752821515830287019450611b22565b896000528560002060005b84811015611b1a57815489820152908301908701611b01565b505082870194505b50929998505050505050505050565b6020808252818101527f4f776e61626c653a2063616c6c6572206973206e6f7420746865206f776e6572604082015260600190565b634e487b7160e01b600052603260045260246000fd5b634e487b7160e01b600052601160045260246000fd5b600060018201611ba457611ba4611b7c565b5060010190565b60208082526029908201527f455243313135353a2063616c6c6572206973206e6f74206f776e6572206e6f7260408201526808185c1c1c9bdd995960ba1b606082015260800190565b601f82111561046157600081815260208120601f850160051c81016020861015611c1b5750805b601f850160051c820191505b81811015610c1357828155600101611c27565b815167ffffffffffffffff811115611c5457611c54611595565b611c6881611c628454611a6a565b84611bf4565b602080601f831160018114611c9d5760008415611c855750858301515b600019600386901b1c1916600185901b178555610c13565b600085815260208120601f198616915b82811015611ccc57888601518255948401946001909101908401611cad565b5085821015611cea5787850151600019600388901b60f8161c191681555b5050505050600190811b01905550565b8082018082111561038557610385611b7c565b60208082526028908201527f455243313135353a2069647320616e6420616d6f756e7473206c656e677468206040820152670dad2e6dac2e8c6d60c31b606082015260800190565b60208082526025908201527f455243313135353a207472616e7366657220746f20746865207a65726f206164604082015264647265737360d81b606082015260800190565b6020808252602a908201527f455243313135353a20696e73756666696369656e742062616c616e636520666f60408201526939103a3930b739b332b960b11b606082015260800190565b604081526000611df76040830185611856565b8281036020840152611e098185611856565b95945050505050565b60208082526023908201527f455243313135353a206275726e2066726f6d20746865207a65726f206164647260408201526265737360e81b606082015260800190565b60208082526024908201527f455243313135353a206275726e20616d6f756e7420657863656564732062616c604082015263616e636560e01b606082015260800190565b8181038181111561038557610385611b7c565b6001600160a01b03868116825285166020820152604081018490526060810183905260a060808201819052600090611ee690830184611523565b979650505050505050565b600060208284031215611f0357600080fd5b81516114df816114ac565b600060033d1115611f275760046000803e5060005160e01c5b90565b600060443d1015611f385790565b6040516003193d81016004833e81513d67ffffffffffffffff8160248401118184111715611f6857505050505090565b8285019150815181811115611f805750505050505090565b843d8701016020828501011115611f9a5750505050505090565b611fa9602082860101876115ab565b509095945050505050565b60208082526028908201527f455243313135353a204552433131353552656365697665722072656a656374656040820152676420746f6b656e7360c01b606082015260800190565b6001600160a01b0386811682528516602082015260a06040820181905260009061202890830186611856565b828103606084015261203a8186611856565b9050828103608084015261204e8185611523565b9897505050505050505056fea264697066735822122079726d63691b905fa4a7a3c91d796ef7137a8eb475de5c8654da11c928f96d0564736f6c63430008100033",
  "immutableReferences": {},
  "source": "// SPDX-License-Identifier: MIT\npragma solidity 0.8.16;\n\nimport \"@openzeppelin/contracts/token/ERC1155/extensions/ERC1155Burnable.sol\";\nimport \"@openzeppelin/contracts/access/Ownable.sol\";\n\ncontract LootBox is ERC1155Burnable, Ownable {\n    mapping(uint256 => string) public names;\n    mapping(uint256 => uint256) private _totalSupply;\n    mapping(uint256 => string) private tokenUri;\n\n    /**\n     * @param uri_ uri string\n     */\n    constructor(string memory uri_) ERC1155(uri_) {}\n\n    /**\n     * @param id id of token\n     * @return uri of token id\n     */\n    function uri(uint256 id) public view override returns (string memory) {\n        return string.concat(ERC1155.uri(id), tokenUri[id]);\n    }\n\n    /**\n     * @param tokenId id of token\n     * @param _tokenUri uri for token id\n     */\n    function addTokenId(\n        uint256 tokenId,\n        string memory name,\n        string memory _tokenUri\n    ) external onlyOwner {\n        tokenUri[tokenId] = _tokenUri;\n        names[tokenId] = name;\n    }\n\n    /**\n     * @dev Mints `tokenId` and transfers it to `to`.\n     */\n    function mint(\n        address to,\n        uint256 tokenId,\n        uint256 amount\n    ) external onlyOwner {\n        _mint(to, tokenId, amount, \"\");\n    }\n\n    /**\n     * @dev Total amount of tokens in with a given id.\n     */\n    function totalSupply(uint256 id) public view virtual returns (uint256) {\n        return _totalSupply[id];\n    }\n\n    /**\n     * @dev Indicates whether any token exist with a given id, or not.\n     */\n    function exists(uint256 id) public view virtual returns (bool) {\n        return _totalSupply[id] > 0;\n    }\n\n    /**\n     * @dev See {ERC1155-_beforeTokenTransfer}.\n     */\n    function _beforeTokenTransfer(\n        address operator,\n        address from,\n        address to,\n        uint256[] memory ids,\n        uint256[] memory amounts,\n        bytes memory data\n    ) internal virtual override {\n        super._beforeTokenTransfer(operator, from, to, ids, amounts, data);\n\n        if (from == address(0)) {\n            for (uint256 i = 0; i < ids.length; ++i) {\n                _totalSupply[ids[i]] += amounts[i];\n            }\n        }\n\n        if (to == address(0)) {\n            for (uint256 i = 0; i < ids.length; ++i) {\n                _totalSupply[ids[i]] -= amounts[i];\n            }\n        }\n    }\n}\n",
  "sourcePath": "/home/ilau/hackotaton_MC/example-lootbox/contracts/loot_box/LootBox.sol",
  "compiler": {
    "name": "solc",
    "version": "0.8.16+commit.07a7930e.Emscripten.clang"
  },
  "schemaVersion": "3.4.5",
  "updatedAt": "2022-08-10T22:54:06.303Z",
  "devdoc": {
    "kind": "dev",
    "methods": {
      "addTokenId(uint256,string,string)": {
        "params": {
          "_tokenUri": "uri for token id",
          "tokenId": "id of token"
        }
      },
      "balanceOf(address,uint256)": {
        "details": "See {IERC1155-balanceOf}. Requirements: - `account` cannot be the zero address."
      },
      "balanceOfBatch(address[],uint256[])": {
        "details": "See {IERC1155-balanceOfBatch}. Requirements: - `accounts` and `ids` must have the same length."
      },
      "constructor": {
        "params": {
          "uri_": "uri string"
        }
      },
      "exists(uint256)": {
        "details": "Indicates whether any token exist with a given id, or not."
      },
      "isApprovedForAll(address,address)": {
        "details": "See {IERC1155-isApprovedForAll}."
      },
      "mint(address,uint256,uint256)": {
        "details": "Mints `tokenId` and transfers it to `to`."
      },
      "owner()": {
        "details": "Returns the address of the current owner."
      },
      "renounceOwnership()": {
        "details": "Leaves the contract without owner. It will not be possible to call `onlyOwner` functions anymore. Can only be called by the current owner. NOTE: Renouncing ownership will leave the contract without an owner, thereby removing any functionality that is only available to the owner."
      },
      "safeBatchTransferFrom(address,address,uint256[],uint256[],bytes)": {
        "details": "See {IERC1155-safeBatchTransferFrom}."
      },
      "safeTransferFrom(address,address,uint256,uint256,bytes)": {
        "details": "See {IERC1155-safeTransferFrom}."
      },
      "setApprovalForAll(address,bool)": {
        "details": "See {IERC1155-setApprovalForAll}."
      },
      "supportsInterface(bytes4)": {
        "details": "See {IERC165-supportsInterface}."
      },
      "totalSupply(uint256)": {
        "details": "Total amount of tokens in with a given id."
      },
      "transferOwnership(address)": {
        "details": "Transfers ownership of the contract to a new account (`newOwner`). Can only be called by the current owner."
      },
      "uri(uint256)": {
        "params": {
          "id": "id of token"
        },
        "returns": {
          "_0": "uri of token id"
        }
      }
    },
    "version": 1
  },
  "userdoc": {
    "kind": "user",
    "methods": {},
    "version": 1
  }
}