{
  "contractName": "LootBoxMarket",
  "abi": [
    {
      "inputs": [
        {
          "internalType": "address",
          "name": "_token",
          "type": "address"
        },
        {
          "internalType": "address",
          "name": "_lootBox",
          "type": "address"
        }
      ],
      "stateMutability": "nonpayable",
      "type": "constructor"
    },
    {
      "anonymous": false,
      "inputs": [
        {
          "indexed": false,
          "internalType": "uint256",
          "name": "tokenID",
          "type": "uint256"
        },
        {
          "indexed": false,
          "internalType": "uint256",
          "name": "price",
          "type": "uint256"
        }
      ],
      "name": "AddNFTLootBox",
      "type": "event"
    },
    {
      "anonymous": false,
      "inputs": [
        {
          "indexed": false,
          "internalType": "address",
          "name": "lootBox",
          "type": "address"
        },
        {
          "indexed": false,
          "internalType": "uint256",
          "name": "tokenId",
          "type": "uint256"
        },
        {
          "indexed": false,
          "internalType": "uint256",
          "name": "price",
          "type": "uint256"
        }
      ],
      "name": "BuyToken",
      "type": "event"
    },
    {
      "anonymous": false,
      "inputs": [
        {
          "indexed": true,
          "internalType": "address",
          "name": "previousOwner",
          "type": "address"
        },
        {
          "indexed": true,
          "internalType": "address",
          "name": "newOwner",
          "type": "address"
        }
      ],
      "name": "OwnershipTransferred",
      "type": "event"
    },
    {
      "anonymous": false,
      "inputs": [
        {
          "indexed": false,
          "internalType": "address",
          "name": "to",
          "type": "address"
        },
        {
          "indexed": false,
          "internalType": "uint256",
          "name": "amount",
          "type": "uint256"
        }
      ],
      "name": "WithdrowAllTokens",
      "type": "event"
    },
    {
      "inputs": [],
      "name": "lootBox",
      "outputs": [
        {
          "internalType": "contract IMintLootBox",
          "name": "",
          "type": "address"
        }
      ],
      "stateMutability": "view",
      "type": "function"
    },
    {
      "inputs": [],
      "name": "owner",
      "outputs": [
        {
          "internalType": "address",
          "name": "",
          "type": "address"
        }
      ],
      "stateMutability": "view",
      "type": "function"
    },
    {
      "inputs": [
        {
          "internalType": "uint256",
          "name": "",
          "type": "uint256"
        }
      ],
      "name": "prices",
      "outputs": [
        {
          "internalType": "uint256",
          "name": "",
          "type": "uint256"
        }
      ],
      "stateMutability": "view",
      "type": "function"
    },
    {
      "inputs": [],
      "name": "renounceOwnership",
      "outputs": [],
      "stateMutability": "nonpayable",
      "type": "function"
    },
    {
      "inputs": [],
      "name": "token",
      "outputs": [
        {
          "internalType": "contract IERC20",
          "name": "",
          "type": "address"
        }
      ],
      "stateMutability": "view",
      "type": "function"
    },
    {
      "inputs": [
        {
          "internalType": "address",
          "name": "newOwner",
          "type": "address"
        }
      ],
      "name": "transferOwnership",
      "outputs": [],
      "stateMutability": "nonpayable",
      "type": "function"
    },
    {
      "inputs": [
        {
          "internalType": "uint256",
          "name": "id",
          "type": "uint256"
        },
        {
          "internalType": "uint256",
          "name": "price",
          "type": "uint256"
        }
      ],
      "name": "setLootBoxPrice",
      "outputs": [],
      "stateMutability": "nonpayable",
      "type": "function"
    },
    {
      "inputs": [],
      "name": "withdrowAllTokens",
      "outputs": [],
      "stateMutability": "nonpayable",
      "type": "function"
    },
    {
      "inputs": [
        {
          "internalType": "uint256",
          "name": "id",
          "type": "uint256"
        },
        {
          "internalType": "uint256",
          "name": "amount",
          "type": "uint256"
        }
      ],
      "name": "buyToken",
      "outputs": [],
      "stateMutability": "nonpayable",
      "type": "function"
    }
  ],
  "bytecode": "0x608060405234801561001057600080fd5b50604051610bed380380610bed83398101604081905261002f916100d5565b61003833610069565b600180546001600160a01b039384166001600160a01b03199182161790915560028054929093169116179055610108565b600080546001600160a01b038381166001600160a01b0319831681178455604051919092169283917f8be0079c531659141344cd1fd0a4f28419497f9722a3daafe3b4186f6b6457e09190a35050565b80516001600160a01b03811681146100d057600080fd5b919050565b600080604083850312156100e857600080fd5b6100f1836100b9565b91506100ff602084016100b9565b90509250929050565b610ad6806101176000396000f3fe608060405234801561001057600080fd5b50600436106100935760003560e01c80638da5cb5b116100665780638da5cb5b146100f8578063bc31c1c114610109578063f2fde38b14610137578063fc0c546a1461014a578063fed148a31461015d57600080fd5b8063057466ea1461009857806325a9703e146100ad578063715018a6146100c057806371fa4958146100c8575b600080fd5b6100ab6100a636600461092c565b610165565b005b6100ab6100bb36600461092c565b6102ba565b6100ab61038f565b6002546100db906001600160a01b031681565b6040516001600160a01b0390911681526020015b60405180910390f35b6000546001600160a01b03166100db565b61012961011736600461094e565b60036020526000908152604090205481565b6040519081526020016100ef565b6100ab610145366004610967565b6103c5565b6001546100db906001600160a01b031681565b6100ab610460565b6000828152600360205260409020546101d35760405162461bcd60e51b815260206004820152602560248201527f4c6f6f74426f784d61726b65743a4c6f6f74426f78206973206e6f7420666f726044820152642073616c6560d81b60648201526084015b60405180910390fd5b60008281526003602052604090205461020890339030906101f49085610990565b6001546001600160a01b03169291906105e1565b600254604051630ab714fb60e11b815233600482015260248101849052604481018390526001600160a01b039091169063156e29f690606401600060405180830381600087803b15801561025b57600080fd5b505af115801561026f573d6000803e3d6000fd5b505060408051338152602081018690529081018490527ff6f342132c7de5e5a1e99c8efae544c94731f3ff093f5c3c97c6973d9415cdfb925060600190505b60405180910390a15050565b6000546001600160a01b031633146102e45760405162461bcd60e51b81526004016101ca906109bd565b600081116103475760405162461bcd60e51b815260206004820152602a60248201527f4c6f6f74426f784d61726b65743a5072696365206d757374206265206d6f7265604482015269207468616e207a65726f60b01b60648201526084016101ca565b60008281526003602090815260409182902083905581518481529081018390527fd5a042012d0b5adc2b4a9282282537793e63531d58204ae50319bb575766654d91016102ae565b6000546001600160a01b031633146103b95760405162461bcd60e51b81526004016101ca906109bd565b6103c36000610652565b565b6000546001600160a01b031633146103ef5760405162461bcd60e51b81526004016101ca906109bd565b6001600160a01b0381166104545760405162461bcd60e51b815260206004820152602660248201527f4f776e61626c653a206e6577206f776e657220697320746865207a65726f206160448201526564647265737360d01b60648201526084016101ca565b61045d81610652565b50565b6000546001600160a01b0316331461048a5760405162461bcd60e51b81526004016101ca906109bd565b61051e61049f6000546001600160a01b031690565b6001546040516370a0823160e01b81523060048201526001600160a01b03909116906370a0823190602401602060405180830381865afa1580156104e7573d6000803e3d6000fd5b505050506040513d601f19601f8201168201806040525081019061050b91906109f2565b6001546001600160a01b031691906106a2565b7f1b51483b07953df17aca45eec537f09deb37592ac22cec503754e0ad3dc64b066105516000546001600160a01b031690565b6001546040516370a0823160e01b81523060048201526001600160a01b03909116906370a0823190602401602060405180830381865afa158015610599573d6000803e3d6000fd5b505050506040513d601f19601f820116820180604052508101906105bd91906109f2565b604080516001600160a01b03909316835260208301919091520160405180910390a1565b6040516001600160a01b038085166024830152831660448201526064810182905261064c9085906323b872dd60e01b906084015b60408051601f198184030181529190526020810180516001600160e01b03166001600160e01b0319909316929092179091526106d7565b50505050565b600080546001600160a01b038381166001600160a01b0319831681178455604051919092169283917f8be0079c531659141344cd1fd0a4f28419497f9722a3daafe3b4186f6b6457e09190a35050565b6040516001600160a01b0383166024820152604481018290526106d290849063a9059cbb60e01b90606401610615565b505050565b600061072c826040518060400160405280602081526020017f5361666545524332303a206c6f772d6c6576656c2063616c6c206661696c6564815250856001600160a01b03166107a99092919063ffffffff16565b8051909150156106d2578080602001905181019061074a9190610a0b565b6106d25760405162461bcd60e51b815260206004820152602a60248201527f5361666545524332303a204552433230206f7065726174696f6e20646964206e6044820152691bdd081cdd58d8d9595960b21b60648201526084016101ca565b60606107b884846000856107c2565b90505b9392505050565b6060824710156108235760405162461bcd60e51b815260206004820152602660248201527f416464726573733a20696e73756666696369656e742062616c616e636520666f6044820152651c8818d85b1b60d21b60648201526084016101ca565b6001600160a01b0385163b61087a5760405162461bcd60e51b815260206004820152601d60248201527f416464726573733a2063616c6c20746f206e6f6e2d636f6e747261637400000060448201526064016101ca565b600080866001600160a01b031685876040516108969190610a51565b60006040518083038185875af1925050503d80600081146108d3576040519150601f19603f3d011682016040523d82523d6000602084013e6108d8565b606091505b50915091506108e88282866108f3565b979650505050505050565b606083156109025750816107bb565b8251156109125782518084602001fd5b8160405162461bcd60e51b81526004016101ca9190610a6d565b6000806040838503121561093f57600080fd5b50508035926020909101359150565b60006020828403121561096057600080fd5b5035919050565b60006020828403121561097957600080fd5b81356001600160a01b03811681146107bb57600080fd5b60008160001904831182151516156109b857634e487b7160e01b600052601160045260246000fd5b500290565b6020808252818101527f4f776e61626c653a2063616c6c6572206973206e6f7420746865206f776e6572604082015260600190565b600060208284031215610a0457600080fd5b5051919050565b600060208284031215610a1d57600080fd5b815180151581146107bb57600080fd5b60005b83811015610a48578181015183820152602001610a30565b50506000910152565b60008251610a63818460208701610a2d565b9190910192915050565b6020815260008251806020840152610a8c816040850160208701610a2d565b601f01601f1916919091016040019291505056fea2646970667358221220e033c1aee0a83b3ff095bc4887742f5242a3b6d342ba87aeab83f84f2fe0a98f64736f6c63430008100033",
  "immutableReferences": {},
  "source": "// SPDX-License-Identifier: MIT\npragma solidity 0.8.16;\n\nimport \"@openzeppelin/contracts/access/Ownable.sol\";\nimport \"@openzeppelin/contracts/token/ERC20/IERC20.sol\";\nimport \"@openzeppelin/contracts/token/ERC20/utils/SafeERC20.sol\";\nimport \"../loot_box/interfaces/IMintLootBox.sol\";\n\ncontract LootBoxMarket is Ownable {\n    using SafeERC20 for IERC20;\n\n    IERC20 public token;\n    IMintLootBox public lootBox;\n    mapping(uint256 => uint256) public prices;\n    event AddNFTLootBox(uint256 tokenID, uint256 price);\n    event WithdrowAllTokens(address to, uint256 amount);\n    event BuyToken(address lootBox, uint256 tokenId, uint256 price);\n\n    /**\n     * @param _token address of token for which ERC1155 is being sold\n     * @param _lootBox address of ERC1155 \n     */\n    constructor(address _token, address _lootBox) {\n        token = IERC20(_token);\n        lootBox = IMintLootBox(_lootBox);\n    }\n    \n    /**\n     * @dev Set price of token \n     * @param id id of token\n     * @param price price of one id's token\n     */\n    function setLootBoxPrice(uint256 id, uint256 price) external onlyOwner {\n        require(price > 0, \"LootBoxMarket:Price must be more than zero\");\n        prices[id] = price;\n        emit AddNFTLootBox(id, price);\n    }\n\n    /**\n     * @dev Transfer all token(ERC20) from this contract to owner\n     */\n    function withdrowAllTokens() external onlyOwner {\n        token.safeTransfer(owner(), token.balanceOf(address(this)));\n        emit WithdrowAllTokens(owner(), token.balanceOf(address(this)));\n    }\n\n    /**\n     * @dev Mint token to the msg.sender for a price this token\n     */\n    function buyToken(uint256 id, uint256 amount) external {\n        require(prices[id] > 0, \"LootBoxMarket:LootBox is not for sale\");\n        token.safeTransferFrom(msg.sender, address(this), amount * prices[id]);\n        lootBox.mint(msg.sender, id, amount);\n        emit BuyToken(msg.sender, id, amount);\n    }\n}\n",
  "sourcePath": "/home/ilau/hackotaton_MC/example-lootbox/contracts/loot_box_market/LootBoxMarket.sol",
  "compiler": {
    "name": "solc",
    "version": "0.8.16+commit.07a7930e.Emscripten.clang"
  },
  "schemaVersion": "3.4.5",
  "updatedAt": "2022-08-10T22:54:06.310Z",
  "devdoc": {
    "kind": "dev",
    "methods": {
      "buyToken(uint256,uint256)": {
        "details": "Mint token to the msg.sender for a price this token"
      },
      "constructor": {
        "params": {
          "_lootBox": "address of ERC1155 ",
          "_token": "address of token for which ERC1155 is being sold"
        }
      },
      "owner()": {
        "details": "Returns the address of the current owner."
      },
      "renounceOwnership()": {
        "details": "Leaves the contract without owner. It will not be possible to call `onlyOwner` functions anymore. Can only be called by the current owner. NOTE: Renouncing ownership will leave the contract without an owner, thereby removing any functionality that is only available to the owner."
      },
      "setLootBoxPrice(uint256,uint256)": {
        "details": "Set price of token ",
        "params": {
          "id": "id of token",
          "price": "price of one id's token"
        }
      },
      "transferOwnership(address)": {
        "details": "Transfers ownership of the contract to a new account (`newOwner`). Can only be called by the current owner."
      },
      "withdrowAllTokens()": {
        "details": "Transfer all token(ERC20) from this contract to owner"
      }
    },
    "version": 1
  },
  "userdoc": {
    "kind": "user",
    "methods": {},
    "version": 1
  }
}