{
  "contractName": "NFTGame",
  "abi": [
    {
      "inputs": [
        {
          "internalType": "string",
          "name": "name_",
          "type": "string"
        },
        {
          "internalType": "string",
          "name": "symbol_",
          "type": "string"
        },
        {
          "internalType": "string",
          "name": "uri_",
          "type": "string"
        },
        {
          "internalType": "string",
          "name": "description_",
          "type": "string"
        },
        {
          "internalType": "uint8",
          "name": "rarity_",
          "type": "uint8"
        }
      ],
      "stateMutability": "nonpayable",
      "type": "constructor"
    },
    {
      "anonymous": false,
      "inputs": [
        {
          "indexed": true,
          "internalType": "address",
          "name": "owner",
          "type": "address"
        },
        {
          "indexed": true,
          "internalType": "address",
          "name": "approved",
          "type": "address"
        },
        {
          "indexed": true,
          "internalType": "uint256",
          "name": "tokenId",
          "type": "uint256"
        }
      ],
      "name": "Approval",
      "type": "event"
    },
    {
      "anonymous": false,
      "inputs": [
        {
          "indexed": true,
          "internalType": "address",
          "name": "owner",
          "type": "address"
        },
        {
          "indexed": true,
          "internalType": "address",
          "name": "operator",
          "type": "address"
        },
        {
          "indexed": false,
          "internalType": "bool",
          "name": "approved",
          "type": "bool"
        }
      ],
      "name": "ApprovalForAll",
      "type": "event"
    },
    {
      "anonymous": false,
      "inputs": [
        {
          "indexed": true,
          "internalType": "address",
          "name": "previousOwner",
          "type": "address"
        },
        {
          "indexed": true,
          "internalType": "address",
          "name": "newOwner",
          "type": "address"
        }
      ],
      "name": "OwnershipTransferred",
      "type": "event"
    },
    {
      "anonymous": false,
      "inputs": [
        {
          "indexed": true,
          "internalType": "address",
          "name": "from",
          "type": "address"
        },
        {
          "indexed": true,
          "internalType": "address",
          "name": "to",
          "type": "address"
        },
        {
          "indexed": true,
          "internalType": "uint256",
          "name": "tokenId",
          "type": "uint256"
        }
      ],
      "name": "Transfer",
      "type": "event"
    },
    {
      "inputs": [
        {
          "internalType": "address",
          "name": "to",
          "type": "address"
        },
        {
          "internalType": "uint256",
          "name": "tokenId",
          "type": "uint256"
        }
      ],
      "name": "approve",
      "outputs": [],
      "stateMutability": "nonpayable",
      "type": "function"
    },
    {
      "inputs": [
        {
          "internalType": "address",
          "name": "owner",
          "type": "address"
        }
      ],
      "name": "balanceOf",
      "outputs": [
        {
          "internalType": "uint256",
          "name": "",
          "type": "uint256"
        }
      ],
      "stateMutability": "view",
      "type": "function"
    },
    {
      "inputs": [],
      "name": "description",
      "outputs": [
        {
          "internalType": "string",
          "name": "",
          "type": "string"
        }
      ],
      "stateMutability": "view",
      "type": "function"
    },
    {
      "inputs": [
        {
          "internalType": "uint256",
          "name": "tokenId",
          "type": "uint256"
        }
      ],
      "name": "getApproved",
      "outputs": [
        {
          "internalType": "address",
          "name": "",
          "type": "address"
        }
      ],
      "stateMutability": "view",
      "type": "function"
    },
    {
      "inputs": [
        {
          "internalType": "address",
          "name": "owner",
          "type": "address"
        },
        {
          "internalType": "address",
          "name": "operator",
          "type": "address"
        }
      ],
      "name": "isApprovedForAll",
      "outputs": [
        {
          "internalType": "bool",
          "name": "",
          "type": "bool"
        }
      ],
      "stateMutability": "view",
      "type": "function"
    },
    {
      "inputs": [],
      "name": "name",
      "outputs": [
        {
          "internalType": "string",
          "name": "",
          "type": "string"
        }
      ],
      "stateMutability": "view",
      "type": "function"
    },
    {
      "inputs": [],
      "name": "owner",
      "outputs": [
        {
          "internalType": "address",
          "name": "",
          "type": "address"
        }
      ],
      "stateMutability": "view",
      "type": "function"
    },
    {
      "inputs": [
        {
          "internalType": "uint256",
          "name": "tokenId",
          "type": "uint256"
        }
      ],
      "name": "ownerOf",
      "outputs": [
        {
          "internalType": "address",
          "name": "",
          "type": "address"
        }
      ],
      "stateMutability": "view",
      "type": "function"
    },
    {
      "inputs": [],
      "name": "rarity",
      "outputs": [
        {
          "internalType": "uint8",
          "name": "",
          "type": "uint8"
        }
      ],
      "stateMutability": "view",
      "type": "function"
    },
    {
      "inputs": [],
      "name": "renounceOwnership",
      "outputs": [],
      "stateMutability": "nonpayable",
      "type": "function"
    },
    {
      "inputs": [
        {
          "internalType": "address",
          "name": "from",
          "type": "address"
        },
        {
          "internalType": "address",
          "name": "to",
          "type": "address"
        },
        {
          "internalType": "uint256",
          "name": "tokenId",
          "type": "uint256"
        }
      ],
      "name": "safeTransferFrom",
      "outputs": [],
      "stateMutability": "nonpayable",
      "type": "function"
    },
    {
      "inputs": [
        {
          "internalType": "address",
          "name": "from",
          "type": "address"
        },
        {
          "internalType": "address",
          "name": "to",
          "type": "address"
        },
        {
          "internalType": "uint256",
          "name": "tokenId",
          "type": "uint256"
        },
        {
          "internalType": "bytes",
          "name": "_data",
          "type": "bytes"
        }
      ],
      "name": "safeTransferFrom",
      "outputs": [],
      "stateMutability": "nonpayable",
      "type": "function"
    },
    {
      "inputs": [
        {
          "internalType": "address",
          "name": "operator",
          "type": "address"
        },
        {
          "internalType": "bool",
          "name": "approved",
          "type": "bool"
        }
      ],
      "name": "setApprovalForAll",
      "outputs": [],
      "stateMutability": "nonpayable",
      "type": "function"
    },
    {
      "inputs": [
        {
          "internalType": "bytes4",
          "name": "interfaceId",
          "type": "bytes4"
        }
      ],
      "name": "supportsInterface",
      "outputs": [
        {
          "internalType": "bool",
          "name": "",
          "type": "bool"
        }
      ],
      "stateMutability": "view",
      "type": "function"
    },
    {
      "inputs": [],
      "name": "symbol",
      "outputs": [
        {
          "internalType": "string",
          "name": "",
          "type": "string"
        }
      ],
      "stateMutability": "view",
      "type": "function"
    },
    {
      "inputs": [
        {
          "internalType": "address",
          "name": "from",
          "type": "address"
        },
        {
          "internalType": "address",
          "name": "to",
          "type": "address"
        },
        {
          "internalType": "uint256",
          "name": "tokenId",
          "type": "uint256"
        }
      ],
      "name": "transferFrom",
      "outputs": [],
      "stateMutability": "nonpayable",
      "type": "function"
    },
    {
      "inputs": [
        {
          "internalType": "address",
          "name": "newOwner",
          "type": "address"
        }
      ],
      "name": "transferOwnership",
      "outputs": [],
      "stateMutability": "nonpayable",
      "type": "function"
    },
    {
      "inputs": [
        {
          "internalType": "uint256",
          "name": "tokenId",
          "type": "uint256"
        }
      ],
      "name": "tokenURI",
      "outputs": [
        {
          "internalType": "string",
          "name": "",
          "type": "string"
        }
      ],
      "stateMutability": "view",
      "type": "function"
    },
    {
      "inputs": [
        {
          "internalType": "address",
          "name": "to",
          "type": "address"
        },
        {
          "internalType": "uint256",
          "name": "tokenId",
          "type": "uint256"
        }
      ],
      "name": "mint",
      "outputs": [],
      "stateMutability": "nonpayable",
      "type": "function"
    }
  ],
  "bytecode": "0x60806040523480156200001157600080fd5b5060405162001895380380620018958339810160408190526200003491620001c8565b848460006200004483826200032c565b5060016200005382826200032c565b505050620000706200006a620000ad60201b60201c565b620000b1565b60076200007e84826200032c565b5060086200008d83826200032c565b506009805460ff191660ff9290921691909117905550620003f892505050565b3390565b600680546001600160a01b038381166001600160a01b0319831681179093556040519116919082907f8be0079c531659141344cd1fd0a4f28419497f9722a3daafe3b4186f6b6457e090600090a35050565b634e487b7160e01b600052604160045260246000fd5b600082601f8301126200012b57600080fd5b81516001600160401b038082111562000148576200014862000103565b604051601f8301601f19908116603f0116810190828211818310171562000173576200017362000103565b816040528381526020925086838588010111156200019057600080fd5b600091505b83821015620001b4578582018301518183018401529082019062000195565b600093810190920192909252949350505050565b600080600080600060a08688031215620001e157600080fd5b85516001600160401b0380821115620001f957600080fd5b6200020789838a0162000119565b965060208801519150808211156200021e57600080fd5b6200022c89838a0162000119565b955060408801519150808211156200024357600080fd5b6200025189838a0162000119565b945060608801519150808211156200026857600080fd5b50620002778882890162000119565b925050608086015160ff811681146200028f57600080fd5b809150509295509295909350565b600181811c90821680620002b257607f821691505b602082108103620002d357634e487b7160e01b600052602260045260246000fd5b50919050565b601f8211156200032757600081815260208120601f850160051c81016020861015620003025750805b601f850160051c820191505b8181101562000323578281556001016200030e565b5050505b505050565b81516001600160401b0381111562000348576200034862000103565b62000360816200035984546200029d565b84620002d9565b602080601f8311600181146200039857600084156200037f5750858301515b600019600386901b1c1916600185901b17855562000323565b600085815260208120601f198616915b82811015620003c957888601518255948401946001909101908401620003a8565b5085821015620003e85787850151600019600388901b60f8161c191681555b5050505050600190811b01905550565b61148d80620004086000396000f3fe608060405234801561001057600080fd5b50600436106101215760003560e01c8063715018a6116100ad578063b88d4fde11610071578063b88d4fde1461024c578063c87b56dd1461025f578063e985e9c514610272578063f2fde38b14610285578063fef21f0f1461029857600080fd5b8063715018a6146102105780637284e416146102185780638da5cb5b1461022057806395d89b4114610231578063a22cb4651461023957600080fd5b806323b872dd116100f457806323b872dd146101a357806340c10f19146101b657806342842e0e146101c95780636352211e146101dc57806370a08231146101ef57600080fd5b806301ffc9a71461012657806306fdde031461014e578063081812fc14610163578063095ea7b31461018e575b600080fd5b61013961013436600461101b565b6102b7565b60405190151581526020015b60405180910390f35b610156610309565b6040516101459190611085565b610176610171366004611098565b61039b565b6040516001600160a01b039091168152602001610145565b6101a161019c3660046110cd565b610435565b005b6101a16101b13660046110f7565b61054a565b6101a16101c43660046110cd565b61057b565b6101a16101d73660046110f7565b6105b3565b6101766101ea366004611098565b6105ce565b6102026101fd366004611133565b610645565b604051908152602001610145565b6101a16106cc565b610156610702565b6006546001600160a01b0316610176565b610156610790565b6101a161024736600461114e565b61079f565b6101a161025a3660046111a0565b6107aa565b61015661026d366004611098565b6107e2565b61013961028036600461127c565b610869565b6101a1610293366004611133565b610897565b6009546102a59060ff1681565b60405160ff9091168152602001610145565b60006001600160e01b031982166380ac58cd60e01b14806102e857506001600160e01b03198216635b5e139f60e01b145b8061030357506301ffc9a760e01b6001600160e01b03198316145b92915050565b606060008054610318906112af565b80601f0160208091040260200160405190810160405280929190818152602001828054610344906112af565b80156103915780601f1061036657610100808354040283529160200191610391565b820191906000526020600020905b81548152906001019060200180831161037457829003601f168201915b5050505050905090565b6000818152600260205260408120546001600160a01b03166104195760405162461bcd60e51b815260206004820152602c60248201527f4552433732313a20617070726f76656420717565727920666f72206e6f6e657860448201526b34b9ba32b73a103a37b5b2b760a11b60648201526084015b60405180910390fd5b506000908152600460205260409020546001600160a01b031690565b6000610440826105ce565b9050806001600160a01b0316836001600160a01b0316036104ad5760405162461bcd60e51b815260206004820152602160248201527f4552433732313a20617070726f76616c20746f2063757272656e74206f776e656044820152603960f91b6064820152608401610410565b336001600160a01b03821614806104c957506104c98133610869565b61053b5760405162461bcd60e51b815260206004820152603860248201527f4552433732313a20617070726f76652063616c6c6572206973206e6f74206f7760448201527f6e6572206e6f7220617070726f76656420666f7220616c6c00000000000000006064820152608401610410565b6105458383610932565b505050565b61055433826109a0565b6105705760405162461bcd60e51b8152600401610410906112e9565b610545838383610a77565b6006546001600160a01b031633146105a55760405162461bcd60e51b81526004016104109061133a565b6105af8282610c13565b5050565b610545838383604051806020016040528060008152506107aa565b6000818152600260205260408120546001600160a01b0316806103035760405162461bcd60e51b815260206004820152602960248201527f4552433732313a206f776e657220717565727920666f72206e6f6e657869737460448201526832b73a103a37b5b2b760b91b6064820152608401610410565b60006001600160a01b0382166106b05760405162461bcd60e51b815260206004820152602a60248201527f4552433732313a2062616c616e636520717565727920666f7220746865207a65604482015269726f206164647265737360b01b6064820152608401610410565b506001600160a01b031660009081526003602052604090205490565b6006546001600160a01b031633146106f65760405162461bcd60e51b81526004016104109061133a565b6107006000610c2d565b565b6008805461070f906112af565b80601f016020809104026020016040519081016040528092919081815260200182805461073b906112af565b80156107885780601f1061075d57610100808354040283529160200191610788565b820191906000526020600020905b81548152906001019060200180831161076b57829003601f168201915b505050505081565b606060018054610318906112af565b6105af338383610c7f565b6107b433836109a0565b6107d05760405162461bcd60e51b8152600401610410906112e9565b6107dc84848484610d4d565b50505050565b6000818152600260205260409020546060906001600160a01b03166108615760405162461bcd60e51b815260206004820152602f60248201527f4552433732314d657461646174613a2055524920717565727920666f72206e6f60448201526e3732bc34b9ba32b73a103a37b5b2b760891b6064820152608401610410565b610303610d80565b6001600160a01b03918216600090815260056020908152604080832093909416825291909152205460ff1690565b6006546001600160a01b031633146108c15760405162461bcd60e51b81526004016104109061133a565b6001600160a01b0381166109265760405162461bcd60e51b815260206004820152602660248201527f4f776e61626c653a206e6577206f776e657220697320746865207a65726f206160448201526564647265737360d01b6064820152608401610410565b61092f81610c2d565b50565b600081815260046020526040902080546001600160a01b0319166001600160a01b0384169081179091558190610967826105ce565b6001600160a01b03167f8c5be1e5ebec7d5bd14f71427d1e84f3dd0314c0f7b2291e5b200ac8c7c3b92560405160405180910390a45050565b6000818152600260205260408120546001600160a01b0316610a195760405162461bcd60e51b815260206004820152602c60248201527f4552433732313a206f70657261746f7220717565727920666f72206e6f6e657860448201526b34b9ba32b73a103a37b5b2b760a11b6064820152608401610410565b6000610a24836105ce565b9050806001600160a01b0316846001600160a01b03161480610a5f5750836001600160a01b0316610a548461039b565b6001600160a01b0316145b80610a6f5750610a6f8185610869565b949350505050565b826001600160a01b0316610a8a826105ce565b6001600160a01b031614610aee5760405162461bcd60e51b815260206004820152602560248201527f4552433732313a207472616e736665722066726f6d20696e636f72726563742060448201526437bbb732b960d91b6064820152608401610410565b6001600160a01b038216610b505760405162461bcd60e51b8152602060048201526024808201527f4552433732313a207472616e7366657220746f20746865207a65726f206164646044820152637265737360e01b6064820152608401610410565b610b5b600082610932565b6001600160a01b0383166000908152600360205260408120805460019290610b84908490611385565b90915550506001600160a01b0382166000908152600360205260408120805460019290610bb2908490611398565b909155505060008181526002602052604080822080546001600160a01b0319166001600160a01b0386811691821790925591518493918716917fddf252ad1be2c89b69c2b068fc378daa952ba7f163c4a11628f55a4df523b3ef91a4505050565b6105af828260405180602001604052806000815250610d8f565b600680546001600160a01b038381166001600160a01b0319831681179093556040519116919082907f8be0079c531659141344cd1fd0a4f28419497f9722a3daafe3b4186f6b6457e090600090a35050565b816001600160a01b0316836001600160a01b031603610ce05760405162461bcd60e51b815260206004820152601960248201527f4552433732313a20617070726f766520746f2063616c6c6572000000000000006044820152606401610410565b6001600160a01b03838116600081815260056020908152604080832094871680845294825291829020805460ff191686151590811790915591519182527f17307eab39ab6107e8899845ad3d59bd9653f200f220920489ca2b5937696c31910160405180910390a3505050565b610d58848484610a77565b610d6484848484610dc2565b6107dc5760405162461bcd60e51b8152600401610410906113ab565b606060078054610318906112af565b610d998383610ec3565b610da66000848484610dc2565b6105455760405162461bcd60e51b8152600401610410906113ab565b60006001600160a01b0384163b15610eb857604051630a85bd0160e11b81526001600160a01b0385169063150b7a0290610e069033908990889088906004016113fd565b6020604051808303816000875af1925050508015610e41575060408051601f3d908101601f19168201909252610e3e9181019061143a565b60015b610e9e573d808015610e6f576040519150601f19603f3d011682016040523d82523d6000602084013e610e74565b606091505b508051600003610e965760405162461bcd60e51b8152600401610410906113ab565b805181602001fd5b6001600160e01b031916630a85bd0160e11b149050610a6f565b506001949350505050565b6001600160a01b038216610f195760405162461bcd60e51b815260206004820181905260248201527f4552433732313a206d696e7420746f20746865207a65726f20616464726573736044820152606401610410565b6000818152600260205260409020546001600160a01b031615610f7e5760405162461bcd60e51b815260206004820152601c60248201527f4552433732313a20746f6b656e20616c7265616479206d696e746564000000006044820152606401610410565b6001600160a01b0382166000908152600360205260408120805460019290610fa7908490611398565b909155505060008181526002602052604080822080546001600160a01b0319166001600160a01b03861690811790915590518392907fddf252ad1be2c89b69c2b068fc378daa952ba7f163c4a11628f55a4df523b3ef908290a45050565b6001600160e01b03198116811461092f57600080fd5b60006020828403121561102d57600080fd5b813561103881611005565b9392505050565b6000815180845260005b8181101561106557602081850181015186830182015201611049565b506000602082860101526020601f19601f83011685010191505092915050565b602081526000611038602083018461103f565b6000602082840312156110aa57600080fd5b5035919050565b80356001600160a01b03811681146110c857600080fd5b919050565b600080604083850312156110e057600080fd5b6110e9836110b1565b946020939093013593505050565b60008060006060848603121561110c57600080fd5b611115846110b1565b9250611123602085016110b1565b9150604084013590509250925092565b60006020828403121561114557600080fd5b611038826110b1565b6000806040838503121561116157600080fd5b61116a836110b1565b91506020830135801515811461117f57600080fd5b809150509250929050565b634e487b7160e01b600052604160045260246000fd5b600080600080608085870312156111b657600080fd5b6111bf856110b1565b93506111cd602086016110b1565b925060408501359150606085013567ffffffffffffffff808211156111f157600080fd5b818701915087601f83011261120557600080fd5b8135818111156112175761121761118a565b604051601f8201601f19908116603f0116810190838211818310171561123f5761123f61118a565b816040528281528a602084870101111561125857600080fd5b82602086016020830137600060208483010152809550505050505092959194509250565b6000806040838503121561128f57600080fd5b611298836110b1565b91506112a6602084016110b1565b90509250929050565b600181811c908216806112c357607f821691505b6020821081036112e357634e487b7160e01b600052602260045260246000fd5b50919050565b60208082526031908201527f4552433732313a207472616e736665722063616c6c6572206973206e6f74206f6040820152701ddb995c881b9bdc88185c1c1c9bdd9959607a1b606082015260800190565b6020808252818101527f4f776e61626c653a2063616c6c6572206973206e6f7420746865206f776e6572604082015260600190565b634e487b7160e01b600052601160045260246000fd5b818103818111156103035761030361136f565b808201808211156103035761030361136f565b60208082526032908201527f4552433732313a207472616e7366657220746f206e6f6e20455243373231526560408201527131b2b4bb32b91034b6b83632b6b2b73a32b960711b606082015260800190565b6001600160a01b03858116825284166020820152604081018390526080606082018190526000906114309083018461103f565b9695505050505050565b60006020828403121561144c57600080fd5b81516110388161100556fea2646970667358221220be649f037e8aac499ab6ff4090160e77349c6466fc3dc6d07795d4d7d365d20364736f6c63430008100033",
  "immutableReferences": {},
  "source": "// SPDX-License-Identifier: MIT\npragma solidity 0.8.16;\n\nimport \"@openzeppelin/contracts/token/ERC721/ERC721.sol\";\nimport \"@openzeppelin/contracts/access/Ownable.sol\";\n\ncontract NFTGame is ERC721, Ownable {\n    string private uri;\n    string public description;\n    uint8 public rarity;\n\n    constructor(\n        string memory name_,\n        string memory symbol_,\n        string memory uri_,\n        string memory description_,\n        uint8 rarity_\n    ) ERC721(name_, symbol_) {\n        uri = uri_;\n        description = description_;\n        rarity = rarity_;\n    }\n\n    function tokenURI(uint256 tokenId) public view virtual override returns (string memory) {\n        require(_exists(tokenId), \"ERC721Metadata: URI query for nonexistent token\");\n        return _baseURI();\n    }\n\n\n    function _baseURI() internal view virtual override returns (string memory) {\n        return uri;\n    }\n\n    function mint(address to, uint256 tokenId) external onlyOwner {\n        _safeMint(to, tokenId);\n    }\n}",
  "sourcePath": "/home/ilau/hackotaton_MC/example-lootbox/contracts/nft_game/NFTGame.sol",
  "compiler": {
    "name": "solc",
    "version": "0.8.16+commit.07a7930e.Emscripten.clang"
  },
  "schemaVersion": "3.4.5",
  "updatedAt": "2022-08-13T12:12:35.144Z",
  "devdoc": {
    "kind": "dev",
    "methods": {
      "approve(address,uint256)": {
        "details": "See {IERC721-approve}."
      },
      "balanceOf(address)": {
        "details": "See {IERC721-balanceOf}."
      },
      "getApproved(uint256)": {
        "details": "See {IERC721-getApproved}."
      },
      "isApprovedForAll(address,address)": {
        "details": "See {IERC721-isApprovedForAll}."
      },
      "name()": {
        "details": "See {IERC721Metadata-name}."
      },
      "owner()": {
        "details": "Returns the address of the current owner."
      },
      "ownerOf(uint256)": {
        "details": "See {IERC721-ownerOf}."
      },
      "renounceOwnership()": {
        "details": "Leaves the contract without owner. It will not be possible to call `onlyOwner` functions anymore. Can only be called by the current owner. NOTE: Renouncing ownership will leave the contract without an owner, thereby removing any functionality that is only available to the owner."
      },
      "safeTransferFrom(address,address,uint256)": {
        "details": "See {IERC721-safeTransferFrom}."
      },
      "safeTransferFrom(address,address,uint256,bytes)": {
        "details": "See {IERC721-safeTransferFrom}."
      },
      "setApprovalForAll(address,bool)": {
        "details": "See {IERC721-setApprovalForAll}."
      },
      "supportsInterface(bytes4)": {
        "details": "See {IERC165-supportsInterface}."
      },
      "symbol()": {
        "details": "See {IERC721Metadata-symbol}."
      },
      "tokenURI(uint256)": {
        "details": "See {IERC721Metadata-tokenURI}."
      },
      "transferFrom(address,address,uint256)": {
        "details": "See {IERC721-transferFrom}."
      },
      "transferOwnership(address)": {
        "details": "Transfers ownership of the contract to a new account (`newOwner`). Can only be called by the current owner."
      }
    },
    "version": 1
  },
  "userdoc": {
    "kind": "user",
    "methods": {},
    "version": 1
  }
}